:100000000C94C0000C9415030C94DD000C94DD00DE
:100010000C94DD000C94DD000C94DD000C94DD00EC
:100020000C94DD000C94DD000C94DD000C94DD00DC
:100030000C94DD000C9484020C94DD000C94DD0023
:100040000C94DD000C94DD000C9492030C94DD0004
:100050000C94DD000C94DD000C94DD000C94DD00AC
:100060000C94DD000C94DD00F20007011C0131014D
:1000700046015B017001C60185019A01AF016E6105
:100080006E00696E660000407A10F35A00A0724E4E
:1000900018090010A5D4E80000E87648170000E42D
:1000A0000B54020000CA9A3B000000E1F505000075
:1000B00080969800000040420F000000A0860100DA
:1000C0000000102700000000E803000000006400AA
:1000D000000000000A000000000001000000000015
:1000E0002C76D888DC674F0823DFC1DFAE59E1B139
:1000F000B796E5E3E453C63AE651997696E8E6C248
:100100008426EB898C9B62ED407C6FFCEFBC9C9F4E
:1001100040F2BAA56FA5F490055A2AF75C936B6C70
:10012000F9676DC11BFCE0E40D47FEF520E6B50064
:10013000D0ED902E0300943577050080841E0800D2
:1001400000204E0A000000C80C333333330F986E82
:1001500012831141EF8D2114893BE65516CFFEE63F
:10016000DB18D1844B381BF77C1D901DA4BBE42405
:10017000203284725E228100C9F124ECA1E53D2782
:1001800011241FBECFEFD8E0DEBFCDBF11E0A0E04D
:10019000B1E0E2EBFAE102C005900D92A836B1079A
:1001A000D9F722E0A8E6B1E001C01D92A03FB20756
:1001B000E1F70E9498020C94570D0C94000061E145
:1001C00071E00E94250C009709F4F7C0E09112023B
:1001D000F0911302EB30F10508F0D8C0EC5CFF4F52
:1001E0000C94EB09909311028093100261E171E08D
:1001F00080E090E00E94250C2091120230911302C1
:100200002F5F3F4F3093130220931202D3C090937D
:100210001D0280931C0261E171E080E090E00E9489
:10022000250C20911202309113022F5F3F4F309323
:10023000130220931202BEC090937B0180937A0137
:1002400061E171E080E090E00E94250C20911202B3
:10025000309113022F5F3F4F30931302209312020D
:10026000A9C0909315028093140261E171E080E0CF
:1002700090E00E94250C20911202309113022F5F12
:100280003F4F309313022093120294C090931702B1
:100290008093160261E171E080E090E00E94250CFD
:1002A00020911202309113022F5F3F4F30931302BF
:1002B000209312027FC090930D0280930C0261E1A3
:1002C00071E080E090E00E94250C209112023091B4
:1002D00013022F5F3F4F30931302209312026AC024
:1002E00090930F0280930E0261E171E080E090E054
:1002F0000E94250C20911202309113022F5F3F4F74
:10030000309313022093120255C090938B01809377
:100310008A0161E171E080E090E00E94250C20916B
:100320001202309113022F5F3F4F3093130220933C
:10033000120240C0909319028093180261E171E0AB
:1003400080E090E00E94250C20911202309113026F
:100350002F5F3F4F30931302209312022BC09093D4
:10036000790180937801FC01128261E171E080E003
:1003700090E00E94250C20911202309113022F5F11
:100380003F4F309313022093120214C090938901BF
:100390008093880161E171E080E090E00E94250C8B
:1003A00020911202309113022F5F3F4F30931302BE
:1003B00020931202009709F009CF109213021092B5
:1003C000120208958F929F92AF92BF92CF92DF92C6
:1003D000EF92FF928DE00E94D30280918401909170
:1003E000850183309105E9F38CE891E00E94DF00FC
:1003F00080911C0290911D02FC0120812D3249F454
:10040000109280011092810110928201109283015A
:100410000EC040E050E066E771E00E94280A609359
:100420008001709381018093820190938301E09118
:100430001602F09117028081811105C01092870188
:10044000109286010BC040E050E066E771E0CF01FA
:100450000E94280A709387016093860140E050E073
:1004600066E771E080917A0190917B010E94280AF1
:100470006B017C0170936C0160936B016091800152
:100480007091810180918201909183010E94760593
:100490002CE23BE546E858E30E9402064B015C0172
:1004A000B60180E090E00E94740523E333E948E858
:1004B00053E40E94960424E138E045E051E40E94B0
:1004C000020620E836EE45EC57E40E9402059B0147
:1004D000AC01C501B4010E94020560936E017093E6
:1004E0006F01809370019093710184E090E090938C
:1004F000850180938401FF90EF90DF90CF90BF90B3
:10050000AF909F908F9008951F920F920FB60F9209
:1005100011248F939F9386EE99EF9093850080939B
:1005200084009F918F910F900FBE0F901F90189590
:100530008FEF8AB980E699E7AEEFBFEF8093800135
:1005400090938101A0938201B09383011092850161
:10055000109284010E947C030E94C002E1E8F0E056
:10056000808185608083EFE6F0E080818160808318
:1005700086EE99EF90938500809384007894FFCF66
:10058000539A5B9A5298E89A85B7826085BF08951E
:10059000811101C05B988FE991E00197F1F700C0EC
:1005A00000005B9A08950F931F93CF93DF93082F5A
:1005B00080E00E94C802C0E0D0E010E098010C2E5C
:1005C00002C0359527950A94E2F720FF04C081E028
:1005D0000E94C80203C080E00E94C8022196C83071
:1005E000D10561F781E00E94C802DF91CF911F9190
:1005F0000F91089520E030E080E061E070E0EFE9E5
:10060000F1E03197F1F700C000004A9B08C0AB0150
:10061000022E02C0440F551F0A94E2F7842B2F5F6D
:100620003F4F2830310559F708951F920F920FB6AA
:100630000F9211242F933F934F935F936F937F9368
:100640008F939F93AF93BF93EF93FF93EE9885B7EC
:100650008D7F85BF8FEC90E00197F1F700C000001F
:100660004A9923C00E94FA02E0916A01F0E0E4573F
:10067000FE4F80838A3071F4E0916A01F0E0E45724
:10068000FE4F108283E090E0909385018093840177
:1006900010926A0180916A018F5F80936A01809154
:1006A0006A01853610F010926A01EE9A85B7826071
:1006B00085BFFF91EF91BF91AF919F918F917F91F6
:1006C0006F915F914F913F912F910F900FBE0F90BF
:1006D0001F901895CF93C82F8A3019F48DE00E948F
:1006E0006A03E0ECF0E0908195FFFDCFC093C60077
:1006F00080E090E0CF9108951092C50087E6809346
:10070000C40088E98093C1008EE08093C2001092FB
:1007100022021092270283E091E09093EB028093F3
:10072000EA0208951F920F920FB60F9211242F9391
:100730003F934F935F936F937F938F939F93AF9369
:10074000BF93CF93DF93EF93FF938091C6008823ED
:1007500009F4D2C0E0912202F0E0E859FD4F808315
:10076000909122029F5F90932202833209F0C4C0CD
:1007700090916902809102019813BCC08FE99FE0BB
:100780000197F1F700C0000080916A02813109F4FD
:1007900065C0823109F493C0803109F0A3C0C1E083
:1007A000D0E0D0938501C09384010E94E2015C9A5D
:1007B0008FEC97E00197F1F700C0000080916A028A
:1007C0001F9293E29F93909115029F939091140230
:1007D0009F9390917B019F9390917A019F93909129
:1007E0001D029F9390911C029F93909171019F9382
:1007F000909170019F9390916F019F9390916E01E2
:100800009F93909101019F93909100019F931F925C
:100810008F93809102011F928F931F9280E48F9398
:1008200084E191E09F938F930E94940C1092850134
:10083000109284018FE39FE10197F1F700C000005F
:100840005C98D0938501C09384018DB79EB746967E
:100850000FB6F8949EBF0FBE8DBF4CC05C9A8FEC54
:1008600097E00197F1F700C0000080916A021F92A3
:1008700093E29F931F928F93809102011F928F9317
:100880001F9280E48F9384E391E09F938F930E9463
:10089000940C81E090E090938501809384018FE334
:1008A0009FE10197F1F700C000005C988DB79EB7FB
:1008B0000A960FB6F8949EBF0FBE8DBF1BC01F9245
:1008C00083E28F931F9280E48F938DE391E09F9357
:1008D0008F930E94940C0F900F900F900F900F9099
:1008E0000F9008C081E591E09F938F930E94940C34
:1008F0000F900F901092220280912202803811F402
:1009000010922202FF91EF91DF91CF91BF91AF91B1
:100910009F918F917F916F915F914F913F912F9117
:100920000F900FBE0F901F9018955058BB27AA2705
:100930000E94AD040C94C8050E94BA0538F00E94CC
:10094000C10520F039F49F3F19F426F40C94B70543
:100950000EF4E095E7FB0C94B105E92F0E94D90550
:1009600058F3BA17620773078407950720F079F4E4
:10097000A6F50C94FB050EF4E0950B2EBA2FA02DD6
:100980000B01B90190010C01CA01A0011124FF273C
:10099000591B99F0593F50F4503E68F11A16F04037
:1009A000A22F232F342F4427585FF3CF4695379536
:1009B0002795A795F0405395C9F77EF41F16BA0BFB
:1009C000620B730B840BBAF09150A1F0FF0FBB1FA9
:1009D000661F771F881FC2F70EC0BA0F621F731FF2
:1009E000841F48F4879577956795B795F7959E3F4F
:1009F00008F0B0CF9395880F08F09927EE0F9795E0
:100A0000879508950E9416050C94C8050E94C1059B
:100A100058F00E94BA0540F029F45F3F29F00C9489
:100A2000B10551110C94FC050C94B7050E94D90531
:100A300068F39923B1F3552391F3951B550BBB270D
:100A4000AA2762177307840738F09F5F5F4F220F52
:100A5000331F441FAA1FA9F335D00E2E3AF0E0E849
:100A600032D091505040E695001CCAF72BD0FE2F93
:100A700029D0660F771F881FBB1F26173707480727
:100A8000AB07B0E809F0BB0B802DBF01FF279358DF
:100A90005F4F3AF09E3F510578F00C94B1050C94ED
:100AA000FC055F3FE4F3983ED4F386957795679510
:100AB000B795F7959F5FC9F7880F911D9695879514
:100AC00097F90895E1E0660F771F881FBB1F621733
:100AD00073078407BA0720F0621B730B840BBA0BF1
:100AE000EE1F88F7E0950895E89409C097FB3EF45F
:100AF00090958095709561957F4F8F4F9F4F99236B
:100B0000A9F0F92F96E9BB279395F69587957795E8
:100B10006795B795F111F8CFFAF4BB0F11F460FFA8
:100B20001BC06F5F7F4F8F4F9F4F16C0882311F000
:100B300096E911C0772321F09EE8872F762F05C014
:100B4000662371F096E8862F70E060E02AF09A95AF
:100B5000660F771F881FDAF7880F9695879597F9A4
:100B6000089597F99F6780E870E060E008959FEF2F
:100B700080EC089500240A94161617061806090634
:100B8000089500240A941216130614060506089503
:100B9000092E0394000C11F4882352F0BB0F40F48B
:100BA000BF2B11F460FF04C06F5F7F4F8F4F9F4FCB
:100BB000089557FD9058440F551F59F05F3F71F04D
:100BC0004795880F97FB991F61F09F3F79F08795B4
:100BD0000895121613061406551FF2CF4695F1DF3D
:100BE00008C0161617061806991FF1CF86957105CD
:100BF000610508940895E894BB2766277727CB0101
:100C000097F908950E9415060C94C8050E94BA052C
:100C100038F00E94C10520F0952311F00C94B10525
:100C20000C94B70511240C94FC050E94D90570F3AF
:100C3000959FC1F3950F50E0551F629FF001729F81
:100C4000BB27F00DB11D639FAA27F00DB11DAA1F90
:100C5000649F6627B00DA11D661F829F2227B00DDD
:100C6000A11D621F739FB00DA11D621F839FA00D68
:100C7000611D221F749F3327A00D611D231F849FB8
:100C8000600D211D822F762F6A2F11249F5750400F
:100C90009AF0F1F088234AF0EE0FFF1FBB1F661F8A
:100CA000771F881F91505040A9F79E3F510580F053
:100CB0000C94B1050C94FC055F3FE4F3983ED4F32B
:100CC000869577956795B795F795E7959F5FC1F7F7
:100CD000FE2B880F911D9695879597F90895A3E1AE
:100CE000B0E0E5E7F6E00C94F1096C014B012A0154
:100CF000FC0117821682838181FF43C3AE014F5FDF
:100D00005F4F3A01F6019381F40193FD859193FFC2
:100D100081914F01882309F430C3853239F493FD62
:100D2000859193FF81914F01853239F4B60190E0AE
:100D30000E945C0C52012501E5CF10E0F12C20E06F
:100D40002032A0F48B3269F030F4803259F08332D3
:100D500069F420612CC08D3239F0803339F4216080
:100D600026C02260246023C0286021C027FD27C040
:100D700030ED380F3A3078F426FF06C0FAE01F9FB6
:100D8000300D1124132F13C04AE0F49E300D1124AE
:100D9000F32E20620CC08E3221F426FDEEC22064B8
:100DA00006C08C3611F4206802C0883641F4F40184
:100DB00093FD859193FF81914F018111C1CF9BEBF1
:100DC000980F933018F42061805E06C09BE9980F5D
:100DD000933008F071C12F7E26FF16E02F73322E5C
:100DE000853619F42064322E08C0863621F4F22F9D
:100DF000F0683F2E02C01111115037FE07C01C339E
:100E000050F4EE24E394E10E27E00BC0183038F0E4
:100E100027E017E005C027E04CE3E42E02C0212FB5
:100E2000E12C520144E0A40EB11CF20160817181F9
:100E3000828193810E2DA3010E94390B2C0109811F
:100E400000FF02C003FF07C031FC08C032FE09C02A
:100E500030E2232E07C02DE2222E04C09BE2292E71
:100E600001C0212C802F8C7019F0211068C2A8C2FB
:100E700037FE0FC0E40C04FF04C08A81813309F4FB
:100E8000EA941E1474F5F8E0FE1578F588E0E82E73
:100E90002CC036FC2AC0812F90E0841595059CF06B
:100EA0002CEF42162FEF520674F0432D4068342E7B
:100EB0000AC0E2E0F0E0EC0FFD1FE10FF11D8081C0
:100EC000803319F411501111F4CF37FE0EC0EE2407
:100ED000E394E10E812F90E0481659062CF4141982
:100EE00004C0EE24E39401C010E037FE06C01414E1
:100EF000150434F4C201019605C085E090E002C0FB
:100F000081E090E021100196112331F0212F30E093
:100F10002F5F3F4F820F931F2F2D30E082179307D3
:100F200014F4F81A01C0F12C832D897049F4FF20C4
:100F300039F0B60180E290E00E945C0CFA94F7CFA1
:100F4000222029F0B601822D90E00E945C0C33FC37
:100F500009C0FF2039F0B60180E390E00E945C0CEC
:100F6000FA94F7CF37FE5AC0942D852D57FE02C054
:100F700090E080E0292E382E20E030E0A2014E19CA
:100F800051095D874C87A201421953095F874E873B
:100F9000612F70E044275527461B570B598B488B10
:100FA0005FEF2516350649F4B6018EE290E02A8BF4
:100FB0003B8B0E945C0C3B892A89421453046CF0E1
:100FC0004C855D854215530544F4EE85FF85E20F9F
:100FD000F31FE60DF71D818101C080E351E0251A62
:100FE00031082F5F3F4F48895989241635064CF048
:100FF000B60190E02A8B3B8B0E945C0C2A893B89CE
:10100000CFCF2414350439F49A81963318F49533EC
:1010100011F404FF81E3B60190E04BC08A81813373
:1010200009F00F7EB60190E00E945C0C111105C022
:1010300034FC18C085E690E017C0B6018EE290E05F
:101040000E945C0C82E0EE24E394E80EF301E80FCA
:10105000F11D8081B60190E00E945C0C11508E2D34
:1010600091F7E6CF85E490E0B6010E945C0C57FC56
:1010700005C04114510439F404FF05C05194419452
:1010800051088DE201C08BE2B60190E00E945C0C39
:1010900080E39AE0491651042CF08F5F5AE0451A1C
:1010A0005108F7CFB60190E00E945C0CB601C20176
:1010B000C0960E945C0C57C1833631F0833779F0BB
:1010C000833509F058C021C05201E2E0AE0EB11CD8
:1010D000F2018081898301E010E0230114C05201F4
:1010E000F2E0AF0EB11CF2014080518026FF03C038
:1010F000612F70E002C06FEF7FEFC2012A8B0E9468
:101100002A0C8C012A892F7715C05201F2E0AF0E0C
:10111000B11CF2014080518026FF03C0612F70E0B6
:1011200002C06FEF7FEFC2012A8B0E941A0C8C0164
:101130002A892068322E23FD1AC08F2D90E00817CF
:101140001907A8F4B60180E290E00E945C0CFA94C2
:10115000F4CFF20137FC859137FE81912F01B60162
:1011600090E00E945C0CF110FA94015011090115F5
:10117000110579F7F8C0843611F0893659F5520116
:1011800027FF09C0F4E0AF0EB11CF201608171814C
:10119000828193810AC0F2E0AF0EB11CF20160813E
:1011A0007181072E000C880B990B2F76322E97FF3A
:1011B00009C090958095709561957F4F8F4F9F4F97
:1011C0002068322E2AE030E0A3010E94AA0CE82E0B
:1011D000E6183FC0022F853721F40F7E2AE030E069
:1011E0001DC0097F8F3691F018F4883559F0C5C0BD
:1011F000803719F0883711F0C0C0006104FF09C0C2
:10120000046007C024FF08C0066006C028E030E084
:1012100005C020E130E002C020E132E0520107FFCA
:1012200009C0F4E0AF0EB11CF201608171818281CE
:10123000938108C0F2E0AF0EB11CF20160817181B0
:1012400080E090E0A3010E94AA0CE82EE6180F7738
:10125000302E36FE0BC0332D3E7FE11650F434FEA7
:101260000AC032FC08C0332D3E7E05C00E2D332D42
:1012700003C00E2D01C0012F34FF0CC0FE01EE0D86
:10128000F11D8081803311F4397E08C032FF05C022
:101290000E5F04C0832F867809F00F5F33FD13C003
:1012A00030FF06C01E2D0F1518F41F0D101B0F2D3B
:1012B0000F1568F4B60180E290E03B8B0E945C0C55
:1012C0000F5F3B89F5CF0F1510F4F01A01C0F12C18
:1012D00034FF12C0B60180E390E03B8B0E945C0CAF
:1012E0003B8932FF17C031FD03C088E790E002C0A0
:1012F00088E590E0B6010CC0832F867859F031FF65
:1013000002C08BE201C080E237FD8DE2B60190E0C1
:101310000E945C0CE11638F4B60180E390E00E9474
:101320005C0C1150F7CFEA94F301EE0DF11D8081B2
:10133000B60190E00E945C0CE110F5CF14C0F4E01F
:10134000FF1558F584E0F81A33FE1EC0211026C0A0
:1013500003FF2AC00EE710E0F32DF0713F2EF801D5
:101360008491811124C0FF2009F4E5CCB60180E20C
:1013700090E00E945C0CFA94F6CFF601868197818A
:1013800026C08FEF9FEF23C0B60180E290E00E945D
:101390005C0CFA94F110F8CFD9CFF12CB601822D64
:1013A00090E00E945C0CD4CF02E810E0D5CF311061
:1013B0008052B60190E00E945C0C0F5F1F4FCFCFB0
:1013C00023E02F1510F483E0BECFF12CC1CF63963C
:1013D000E2E10C940D0AEE0FFF1F0590F491E02D51
:1013E00009942F923F924F925F926F927F928F92C9
:1013F0009F92AF92BF92CF92DF92EF92FF920F93A4
:101400001F93CF93DF93CDB7DEB7CA1BDB0B0FB6AD
:10141000F894DEBF0FBECDBF09942A88398848886A
:101420005F846E847D848C849B84AA84B984C88400
:10143000DF80EE80FD800C811B81AA81B981CE0FF7
:10144000D11D0FB6F894DEBF0FBECDBFED010895DC
:10145000A0E0B0E0EEE2FAE00C94F1095C016B016F
:101460007A016115710519F0FB0191838083E11404
:10147000F10429F0C7010297839708F0F1C0E50154
:101480002196F5011081812F90E00E94110C892B8B
:1014900011F05E01F4CF1D3229F42196F50111817E
:1014A00001E007C01B3221F4E5012296F50111810C
:1014B00000E0E114F10459F1F0E1EF16F10461F4F8
:1014C0001033E1F488818F7D883569F51981229682
:1014D000026070E1E72EF12C88E0E816F10439F1A2
:1014E0002CF4F2E0EF16F104C9F12AC08AE0E81604
:1014F000F10479F0E0E1EE16F10411F550E1E52E8A
:10150000F12C812C912CA12C68E0B62E2CC010332C
:10151000C9F23AE0E32EF12C4CEC842E982CA82C46
:101520004CE0B42E20C010E3E114F104A9F698E0D9
:10153000E92EF12C812C912CA12C20E1B22E13C08C
:1015400060E070E080E090E897010F2C000C440B05
:10155000550B0E941B0D49015A0105C0812C912C8D
:10156000A12C80E4B82E60E020E030E0A901270142
:101570000F2C000C660877081E01E0EDE10FEA3041
:1015800060F08FEB810F8A3110F4E9EC05C08FE930
:10159000810F8A3128F5E9EAE10F8E2F90E08E1550
:1015A0009F05F4F467FD18C082169306A406B506DD
:1015B00090F0C301B2010E940B0D9B01AC012E0FF4
:1015C000311D411D511D213031054105F0E85F07F6
:1015D00010F461E001C06FEF2196F1011081CCCFD2
:1015E000802F8170C114D10471F0662329F02197F6
:1015F000F601D183C08307C001FF19C02297F6010D
:10160000D183C08314C067FF12C0811105C02FEFC2
:101610003FEF4FEF5FE704C020E030E040E050E8EC
:1016200082E290E09093EF028093EE0216C088234E
:1016300041F050954095309521953F4F4F4F5F4F6A
:101640000CC057FF0AC082E290E09093EF028093B3
:10165000EE022FEF3FEF4FEF5FE7B901CA0104C081
:1016600060E070E080E090E0CDB7DEB7E2E10C949E
:101670000D0A283008F027E03327DA01990F311DD1
:1016800087FD916000966105710539F432602E5F27
:101690003D9330E32A95E1F708959F3F30F080387D
:1016A0007105610509F03C5F3C5F3D93913008F0A6
:1016B0008068911DDF93CF931F930F93FF92EF925A
:1016C000192F987F9695E92F96959695E90FFF2704
:1016D000E052FF4F99273327EE24FF24A701E701AB
:1016E00005900894079428F4360FE71EF81E491F4A
:1016F000511D660F771F881F991F0694A1F705904B
:10170000079428F4E70EF81E491F561FC11D770FD6
:10171000881F991F661F0694A1F70590079428F467
:10172000F80E491F561FC71FD11D880F991F661F2E
:10173000771F0694A1F70590079420F4490F561FD0
:10174000C71FD81F990F661F771F881F0694A9F718
:1017500084911095177041F0D695C7955795479588
:10176000F794E7941A95C1F7E6E8F0E068941590CD
:10177000159135916591959105907FE27395E118EA
:10178000F10A430B560BC90BD009C0F7E10CF11E4F
:10179000431F561FC91FD01D7EF4703311F48A9564
:1017A000E6CFE894015030F0080F0AF40027021742
:1017B00008F4202F2395022F7A3328F079E37D93C4
:1017C0002A95E9F710C07D932A9589F60694979596
:1017D0006795379517951794E118F10A430B560B47
:1017E000C90BD00998F023957E9173957A3308F050
:1017F00070E37C932013B8F77E9170617D9330F095
:10180000839571E37D9370E32A95E1F71124EF90BE
:10181000FF900F911F91CF91DF91992787FD9095B0
:10182000089591110C94080D803219F0895085505B
:10183000C8F70895FC010590615070400110D8F779
:10184000809590958E0F9F1F089548E651E00E9465
:10185000350C0895FC016150704001900110D8F7DB
:10186000809590958E0F9F1F0895FA01A191B081E8
:10187000009719F41097E1F0CD01DC01CD010D9036
:10188000002011F4C00113C0FB012191222319F0A3
:101890002015D9F7F3CFFB012191201519F41E92E1
:1018A000119606C02223C1F70D900020A1F7D001A8
:1018B000FA01A193B08308950F931F93CF93DF9301
:1018C000FB01238121FD03C08FEF9FEF28C022FF82
:1018D00016C046815781248135814217530744F44D
:1018E000A081B1819D012F5F3F4F318320838C9375
:1018F000268137812F5F3F4F3783268310C0EB014E
:10190000092F182F0084F185E02D0995892BE1F628
:101910008E819F8101969F838E83812F902FDF91EF
:10192000CF911F910F910895A0E0B0E0EAE9FCE0AB
:101930000C94010AAE014B5F5F4FFA016191719106
:10194000AF018091EA029091EB020E946F06E2E003
:101950000C941D0AFA01AA27283051F1203181F197
:10196000E8946F936E7F6E5F7F4F8F4F9F4FAF4FA7
:10197000B1E03ED0B4E03CD0670F781F891F9A1FBA
:10198000A11D680F791F8A1F911DA11D6A0F711D6E
:10199000811D911DA11D20D009F468943F912AE07A
:1019A000269F11243019305D3193DEF6CF01089562
:1019B000462F4770405D4193B3E00FD0C9F7F6CF93
:1019C000462F4F70405D4A3318F0495D31FD40525B
:1019D000419302D0A9F7EACFB4E0A69597958795F1
:1019E00077956795BA95C9F70097610571050895D0
:1019F0009B01AC010A2E069457954795379527957C
:101A0000BA95C9F7620F731F841F951FA01D089513
:101A1000992788270895DB018F939F930E943D0D9E
:101A2000BF91AF91A29F800D911DA39F900DB29F7A
:101A3000900D11240895A1E21A2EAA1BBB1BFD01D3
:101A40000DC0AA1FBB1FEE1FFF1FA217B307E4079D
:101A5000F50720F0A21BB30BE40BF50B661F771FF5
:101A6000881F991F1A9469F76095709580959095D5
:101A70009B01AC01BD01CF0108950E94480DA59FB7
:101A8000900DB49F900DA49F800D911D1124089579
:101A9000A29FB001B39FC001A39F700D811D1124AF
:101AA000911DB29F700D811D1124911D0895F89410
:021AB000FFCF66
:101AB2006301FB00000002000000006A0300000056
:101AC200002C20002563256325632C2025732C2000
:101AD200252E33662C2025732C2025732C2025736C
:101AE2002C25630025632563256325630025632078
:101AF200636F6D616E642030783132206F6B2563C5
:101B020000636F6D616E64206E6F7420666F756E18
:081B1200642A00534F32000069
:00000001FF
